:1000000012C02AC029C028C027C026C025C024C0CD
:1000100023C022C021C020C01FC01EC01DC01CC0E4
:100020001BC01AC019C011241FBECFEDCDBF10E0F8
:10003000A0E6B0E0EAECF2E002C005900D92AC362A
:10004000B107D9F720E0ACE6B0E001C01D92AF36B1
:10005000B207E1F709D137C1D3CFCF93DF93CDB743
:10006000DD27C350CDBF8CE690E09A83898386E379
:1000700090E0FC018081882F90E08170992721E039
:10008000009709F020E02B838B81813061F4898116
:100090009A81FC018081882331F489819A8121E051
:1000A000FC0120830EC08B81882359F489819A81B9
:1000B000FC018081813029F489819A8122E0FC0150
:1000C000208389819A81FC01908181E0923009F03E
:1000D00080E0CD5FCDBFDF91CF910895CF93DF93C7
:1000E000CDB7DD27C350CDBF8DE690E09B838A83DB
:1000F00080916E00882371F486E390E0FC0180819A
:10010000882F90E08270992721E0009709F020E085
:1001100029830DC086E390E0FC018081882F90E068
:100120008270992721E0009709F420E029838981D2
:10013000813061F48A819B81FC018081882331F4C4
:100140008A819B8121E0FC0120830EC08981882364
:1001500059F48A819B81FC018081813029F48A8154
:100160009B8122E0FC0120838A819B81FC0190819C
:1001700081E0923009F080E0CD5FCDBFDF91CF917B
:100180000895CF93DF931F92CDB7DD2789830000B9
:100190008BE290E0FC018081882F90E080729927AB
:1001A0000097B1F38CE290E02981FC0120830F904D
:1001B000DF91CF910895CF93DF9300D0CDB7DD27A6
:1001C0008A838A818093650019820BC08981882F78
:1001D00090E0805A9F4FFC018081D3DF89818F5F3F
:1001E000898389818B3090F3CE5FCDBFDF91CF9132
:1001F0000895CF93DF93CDB7DD2788E390E023E028
:10020000FC01208382E390E020E2FC0120838BE26A
:1002100090E02BE230E0F90120812260FC01208394
:1002200082E290E0FC01108289E290E02CE0FC0187
:1002300020838AE290E02AE230E0F9012081286000
:10024000FC01208380E390E0FC018081882F90E016
:100250008072992721E0009709F420E0822F809393
:100260006E00DF91CF910895CF93DF9300D0CDB78B
:10027000DD271982BEDF01C000008981882381F457
:10028000ECDE882329F08EE496DF81E08983F4CFC9
:1002900025DF882389F38BE48EDF81E08983ECCF2F
:1002A00080E089DF19821A820AC08A81882F90E053
:1002B00084599F4FFC0110828A818F5F8A838A81D3
:0A02C000823098F3D9CFF894FFCFF5
:0C02CA00FD090100000000000000000021
:00000001FF
