:1000000012C02AC029C028C027C026C025C024C0CD
:1000100023C022C021C020C01FC01EC01DC01CC0E4
:100020001BC01AC019C011241FBECFEDCDBF10E0F8
:10003000A0E6B0E0EEE7F2E002C005900D92AC362B
:10004000B107D9F720E0ACE6B0E001C01D92AE36B2
:10005000B207E1F7E3D011C1D3CFCF93DF93CDB790
:10006000DD27C350CDBF8CE690E09A83898386E379
:1000700090E0FC018081882F90E08170992721E039
:10008000009709F020E02B838B81813061F4898116
:100090009A81FC018081882331F489819A8121E051
:1000A000FC0120830EC08B81882359F489819A81B9
:1000B000FC018081813029F489819A8122E0FC0150
:1000C000208389819A81FC01908181E0923009F03E
:1000D00080E0CD5FCDBFDF91CF910895CF93DF93C7
:1000E000CDB7DD27C350CDBF8DE690E09A838983DD
:1000F00086E390E0FC018081882F90E08270992750
:1001000021E0009709F420E02B838B81813061F49A
:1001100089819A81FC018081882331F489819A81C7
:1001200021E0FC0120830EC08B81882359F4898152
:100130009A81FC018081813029F489819A8122E0B1
:10014000FC01208389819A81FC01908181E09230B9
:1001500009F080E0CD5FCDBFDF91CF910895CF93BF
:10016000DF931F92CDB7DD27898300008BE290E0FB
:10017000FC018081882F90E0807299270097B1F36D
:100180008CE290E02981FC0120830F90DF91CF91D8
:100190000895CF93DF9300D0CDB7DD278A838A817E
:1001A0008093650019820BC08981882F90E0805A66
:1001B0009F4FFC018081D3DF89818F5F8983898193
:1001C0008B3090F3CE5FCDBFDF91CF910895CF9369
:1001D000DF93CDB7DD2788E390E023E0FC012083A7
:1001E0008BE290E02BE230E0F90120812260FC01FB
:1001F000208382E290E0FC01108289E290E02CE012
:10020000FC0120838AE290E02AE230E0F9012081BB
:100210002860FC012083DF91CF910895CF93DF9375
:1002200000D0CDB7DD271982D2DF01C0000089815F
:10023000882381F412DF882329F08EE4AADF81E08D
:100240008983F4CF4BDF882389F38BE4A2DF81E03D
:100250008983ECCF80E09DDF19821A820AC08A81EF
:10026000882F90E084599F4FFC0110828A818F5F14
:0E0270008A838A81823098F3D9CFF894FFCF29
:0C027E00FD09010000000000000000006D
:00000001FF
